:100000000C9438000C9442000C9442000C94420072
:100010000C9442000C9442000C9442000C94420058
:100020000C9442000C9442000C9442000C94420048
:100030000C9442000C9442000C9442000C94420038
:100040000C9442000C9442000C9442000C94420028
:100050000C9442000C9442000C9442000C94420018
:100060000C9442000C9442000C9442000C94420008
:1000700011241FBECFEFD4E0DEBFCDBF0E944400ED
:100080000C9462000C9400008FE190E00E945300F9
:1000900081E490E00E945A008FEF9FE20197F1F710
:1000A00000C00000F5CF90BD89B988E18AB98EE81B
:1000B00080BD08955D9BFECF8CB908955F9BFECFF8
:0800C0008CB10895F894FFCF04
:00000001FF
