:100000000C9438000C9442000C9442000C94420072
:100010000C9442000C9442000C9442000C94420058
:100020000C9442000C9442000C9442000C94420048
:100030000C9442000C9442000C9442000C94420038
:100040000C9442000C9442000C9442000C94420028
:100050000C9442000C9442000C9442000C94420018
:100060000C9442000C9442000C9442000C94420008
:1000700011241FBECFEFD4E0DEBFCDBF0E944400ED
:100080000C9454000C940000D29ADA9A8FEF9FE2FD
:100090000197F1F700C00000DA988FEF9FE2019717
:0C00A000F1F700C00000F1CFF894FFCF92
:00000001FF
